{
  "_format": "hh-sol-artifact-1",
  "contractName": "VoteQuest",
  "sourceName": "contracts/VoteQuest.sol",
  "abi": [
    {
      "anonymous": false,
      "inputs": [
        {
          "indexed": true,
          "internalType": "uint256",
          "name": "id",
          "type": "uint256"
        },
        {
          "indexed": false,
          "internalType": "string",
          "name": "title",
          "type": "string"
        },
        {
          "indexed": false,
          "internalType": "uint256",
          "name": "deadline",
          "type": "uint256"
        }
      ],
      "name": "ProposalCreated",
      "type": "event"
    },
    {
      "anonymous": false,
      "inputs": [
        {
          "indexed": true,
          "internalType": "uint256",
          "name": "proposalId",
          "type": "uint256"
        },
        {
          "indexed": true,
          "internalType": "address",
          "name": "voter",
          "type": "address"
        },
        {
          "indexed": false,
          "internalType": "uint256",
          "name": "optionIndex",
          "type": "uint256"
        }
      ],
      "name": "VoteCast",
      "type": "event"
    },
    {
      "inputs": [
        {
          "internalType": "string",
          "name": "_title",
          "type": "string"
        },
        {
          "internalType": "string",
          "name": "_description",
          "type": "string"
        },
        {
          "internalType": "uint256",
          "name": "_durationInMinutes",
          "type": "uint256"
        },
        {
          "internalType": "string[]",
          "name": "_options",
          "type": "string[]"
        }
      ],
      "name": "createProposal",
      "outputs": [],
      "stateMutability": "nonpayable",
      "type": "function"
    },
    {
      "inputs": [
        {
          "internalType": "uint256",
          "name": "_proposalId",
          "type": "uint256"
        }
      ],
      "name": "getProposal",
      "outputs": [
        {
          "components": [
            {
              "internalType": "uint256",
              "name": "id",
              "type": "uint256"
            },
            {
              "internalType": "string",
              "name": "title",
              "type": "string"
            },
            {
              "internalType": "string",
              "name": "description",
              "type": "string"
            },
            {
              "internalType": "uint256",
              "name": "deadline",
              "type": "uint256"
            },
            {
              "internalType": "string[]",
              "name": "options",
              "type": "string[]"
            },
            {
              "internalType": "uint256[]",
              "name": "voteCounts",
              "type": "uint256[]"
            }
          ],
          "internalType": "struct VoteQuest.ProposalView",
          "name": "",
          "type": "tuple"
        }
      ],
      "stateMutability": "view",
      "type": "function"
    },
    {
      "inputs": [
        {
          "internalType": "uint256",
          "name": "",
          "type": "uint256"
        },
        {
          "internalType": "address",
          "name": "",
          "type": "address"
        }
      ],
      "name": "hasVoted",
      "outputs": [
        {
          "internalType": "bool",
          "name": "",
          "type": "bool"
        }
      ],
      "stateMutability": "view",
      "type": "function"
    },
    {
      "inputs": [],
      "name": "proposalCount",
      "outputs": [
        {
          "internalType": "uint256",
          "name": "",
          "type": "uint256"
        }
      ],
      "stateMutability": "view",
      "type": "function"
    },
    {
      "inputs": [
        {
          "internalType": "uint256",
          "name": "",
          "type": "uint256"
        }
      ],
      "name": "proposals",
      "outputs": [
        {
          "internalType": "uint256",
          "name": "id",
          "type": "uint256"
        },
        {
          "internalType": "string",
          "name": "title",
          "type": "string"
        },
        {
          "internalType": "string",
          "name": "description",
          "type": "string"
        },
        {
          "internalType": "uint256",
          "name": "deadline",
          "type": "uint256"
        },
        {
          "internalType": "bool",
          "name": "exists",
          "type": "bool"
        }
      ],
      "stateMutability": "view",
      "type": "function"
    },
    {
      "inputs": [
        {
          "internalType": "uint256",
          "name": "_proposalId",
          "type": "uint256"
        },
        {
          "internalType": "uint256",
          "name": "_optionIndex",
          "type": "uint256"
        }
      ],
      "name": "vote",
      "outputs": [],
      "stateMutability": "nonpayable",
      "type": "function"
    }
  ],
  "bytecode": "0x608060405234801561001057600080fd5b50610f96806100206000396000f3fe608060405234801561001057600080fd5b50600436106100625760003560e01c8063013cf08b146100675780634385963214610094578063523413aa146100d2578063b384abef146100e7578063c7f758a8146100fa578063da35c6641461011a575b600080fd5b61007a6100753660046109a6565b610131565b60405161008b959493929190610a05565b60405180910390f35b6100c26100a2366004610a4a565b600160209081526000928352604080842090915290825290205460ff1681565b604051901515815260200161008b565b6100e56100e0366004610b3d565b610274565b005b6100e56100f5366004610c4f565b610398565b61010d6101083660046109a6565b610583565b60405161008b9190610cad565b61012360025481565b60405190815260200161008b565b6000602081905290815260409020805460018201805491929161015390610d7e565b80601f016020809104026020016040519081016040528092919081815260200182805461017f90610d7e565b80156101cc5780601f106101a1576101008083540402835291602001916101cc565b820191906000526020600020905b8154815290600101906020018083116101af57829003601f168201915b5050505050908060020180546101e190610d7e565b80601f016020809104026020016040519081016040528092919081815260200182805461020d90610d7e565b801561025a5780601f1061022f5761010080835404028352916020019161025a565b820191906000526020600020905b81548152906001019060200180831161023d57829003601f168201915b50505050600383015460069093015491929160ff16905085565b60018151116102ca5760405162461bcd60e51b815260206004820152601d60248201527f4174206c656173742074776f206f7074696f6e7320726571756972656400000060448201526064015b60405180910390fd5b600280549060006102da83610dce565b90915550506002546000818152602081905260409020908155600181016103018682610e38565b50600281016103108582610e38565b5061031c83603c610ef8565b6103269042610f15565b6003820155815161034090600483019060208501906108e1565b5060068101805460ff1916600117905560025460038201546040517ff5dc0da9afa6d080780a49fd8c680f03d2ddf3c067cd6d0c85360c096644d2d39161038991899190610f28565b60405180910390a25050505050565b60008281526020819052604090206006015460ff166103f35760405162461bcd60e51b8152602060048201526017602482015276141c9bdc1bdcd85b08191bd95cc81b9bdd08195e1a5cdd604a1b60448201526064016102c1565b60008281526020819052604090206003015442106104465760405162461bcd60e51b815260206004820152601060248201526f159bdd1a5b99c81a185cc8195b99195960821b60448201526064016102c1565b600082815260016020908152604080832033845290915290205460ff16156104a95760405162461bcd60e51b8152602060048201526016602482015275165bdd481a185d9948185b1c9958591e481d9bdd195960521b60448201526064016102c1565b60008281526020819052604090206004015481106104fa5760405162461bcd60e51b815260206004820152600e60248201526d24b73b30b634b21037b83a34b7b760911b60448201526064016102c1565b600082815260208181526040808320848452600501909152812080549161052083610dce565b909155505060008281526001602081815260408084203380865290835293819020805460ff1916909317909255905183815284917f2acce567deca3aabf56327adbb4524bd5318936eaefa69e3a5208ffda0cfec09910160405180910390a35050565b6105bc6040518060c001604052806000815260200160608152602001606081526020016000815260200160608152602001606081525090565b60008281526020819052604090206006015460ff166106175760405162461bcd60e51b8152602060048201526017602482015276141c9bdc1bdcd85b08191bd95cc81b9bdd08195e1a5cdd604a1b60448201526064016102c1565b6000828152602081905260408120600481015490919067ffffffffffffffff81111561064557610645610a86565b60405190808252806020026020018201604052801561066e578160200160208202803683370190505b50905060005b60048301548110156106b857600081815260058401602052604090205482518390839081106106a5576106a5610f4a565b6020908102919091010152600101610674565b506040518060c00160405280836000015481526020018360010180546106dd90610d7e565b80601f016020809104026020016040519081016040528092919081815260200182805461070990610d7e565b80156107565780601f1061072b57610100808354040283529160200191610756565b820191906000526020600020905b81548152906001019060200180831161073957829003601f168201915b5050505050815260200183600201805461076f90610d7e565b80601f016020809104026020016040519081016040528092919081815260200182805461079b90610d7e565b80156107e85780601f106107bd576101008083540402835291602001916107e8565b820191906000526020600020905b8154815290600101906020018083116107cb57829003601f168201915b505050505081526020018360030154815260200183600401805480602002602001604051908101604052809291908181526020016000905b828210156108cc57838290600052602060002001805461083f90610d7e565b80601f016020809104026020016040519081016040528092919081815260200182805461086b90610d7e565b80156108b85780601f1061088d576101008083540402835291602001916108b8565b820191906000526020600020905b81548152906001019060200180831161089b57829003601f168201915b505050505081526020019060010190610820565b50505090825250602001919091529392505050565b828054828255906000526020600020908101928215610927579160200282015b8281111561092757825182906109179082610e38565b5091602001919060010190610901565b50610933929150610937565b5090565b8082111561093357600061094b8282610954565b50600101610937565b50805461096090610d7e565b6000825580601f10610970575050565b601f01602090049060005260206000209081019061098e9190610991565b50565b5b808211156109335760008155600101610992565b6000602082840312156109b857600080fd5b5035919050565b6000815180845260005b818110156109e5576020818501810151868301820152016109c9565b506000602082860101526020601f19601f83011685010191505092915050565b85815260a060208201526000610a1e60a08301876109bf565b8281036040840152610a3081876109bf565b606084019590955250509015156080909101529392505050565b60008060408385031215610a5d57600080fd5b8235915060208301356001600160a01b0381168114610a7b57600080fd5b809150509250929050565b634e487b7160e01b600052604160045260246000fd5b604051601f8201601f1916810167ffffffffffffffff81118282101715610ac557610ac5610a86565b604052919050565b600082601f830112610ade57600080fd5b813567ffffffffffffffff811115610af857610af8610a86565b610b0b601f8201601f1916602001610a9c565b818152846020838601011115610b2057600080fd5b816020850160208301376000918101602001919091529392505050565b60008060008060808587031215610b5357600080fd5b843567ffffffffffffffff80821115610b6b57600080fd5b610b7788838901610acd565b9550602091508187013581811115610b8e57600080fd5b610b9a89828a01610acd565b95505060408701359350606087013581811115610bb657600080fd5b8701601f81018913610bc757600080fd5b803582811115610bd957610bd9610a86565b8060051b610be8858201610a9c565b918252828101850191858101908c841115610c0257600080fd5b86850192505b83831015610c3e57823586811115610c205760008081fd5b610c2e8e8983890101610acd565b8352509186019190860190610c08565b999c989b5096995050505050505050565b60008060408385031215610c6257600080fd5b50508035926020909101359150565b60008151808452602080850194506020840160005b83811015610ca257815187529582019590820190600101610c86565b509495945050505050565b600060208083528351818401528084015160c06040850152610cd260e08501826109bf565b90506040850151601f1980868403016060870152610cf083836109bf565b92506060870151608087015260808701519150808684030160a08701528282518085528585019150858160051b860101868501945060005b82811015610d545784878303018452610d428287516109bf565b95880195938801939150600101610d28565b5060a08a01519650838982030160c08a0152610d708188610c71565b9a9950505050505050505050565b600181811c90821680610d9257607f821691505b602082108103610db257634e487b7160e01b600052602260045260246000fd5b50919050565b634e487b7160e01b600052601160045260246000fd5b600060018201610de057610de0610db8565b5060010190565b601f821115610e33576000816000526020600020601f850160051c81016020861015610e105750805b601f850160051c820191505b81811015610e2f57828155600101610e1c565b5050505b505050565b815167ffffffffffffffff811115610e5257610e52610a86565b610e6681610e608454610d7e565b84610de7565b602080601f831160018114610e9b5760008415610e835750858301515b600019600386901b1c1916600185901b178555610e2f565b600085815260208120601f198616915b82811015610eca57888601518255948401946001909101908401610eab565b5085821015610ee85787850151600019600388901b60f8161c191681555b5050505050600190811b01905550565b8082028115828204841417610f0f57610f0f610db8565b92915050565b80820180821115610f0f57610f0f610db8565b604081526000610f3b60408301856109bf565b90508260208301529392505050565b634e487b7160e01b600052603260045260246000fdfea264697066735822122099a7424c7bbdbc4a90ecfabaa6d7074c4022ab40f8a2fc41d69ba94aec7d759764736f6c63430008180033",
  "linkReferences": {},
  "deployedLinkReferences": {}
}