{
  "_format": "hh-sol-artifact-1",
  "contractName": "VoteQuest",
  "sourceName": "contracts/VoteQuest.sol",
  "abi": [
    {
      "anonymous": false,
      "inputs": [
        {
          "indexed": true,
          "internalType": "uint256",
          "name": "id",
          "type": "uint256"
        },
        {
          "indexed": false,
          "internalType": "string",
          "name": "title",
          "type": "string"
        },
        {
          "indexed": false,
          "internalType": "uint256",
          "name": "deadline",
          "type": "uint256"
        }
      ],
      "name": "ProposalCreated",
      "type": "event"
    },
    {
      "anonymous": false,
      "inputs": [
        {
          "indexed": true,
          "internalType": "uint256",
          "name": "proposalId",
          "type": "uint256"
        },
        {
          "indexed": true,
          "internalType": "address",
          "name": "voter",
          "type": "address"
        },
        {
          "indexed": false,
          "internalType": "uint256",
          "name": "optionIndex",
          "type": "uint256"
        }
      ],
      "name": "VoteCast",
      "type": "event"
    },
    {
      "inputs": [
        {
          "internalType": "string",
          "name": "_title",
          "type": "string"
        },
        {
          "internalType": "string",
          "name": "_description",
          "type": "string"
        },
        {
          "internalType": "uint256",
          "name": "_durationInMinutes",
          "type": "uint256"
        },
        {
          "internalType": "string[]",
          "name": "_options",
          "type": "string[]"
        }
      ],
      "name": "createProposal",
      "outputs": [],
      "stateMutability": "nonpayable",
      "type": "function"
    },
    {
      "inputs": [
        {
          "internalType": "uint256",
          "name": "_proposalId",
          "type": "uint256"
        }
      ],
      "name": "getProposal",
      "outputs": [
        {
          "components": [
            {
              "internalType": "uint256",
              "name": "id",
              "type": "uint256"
            },
            {
              "internalType": "string",
              "name": "title",
              "type": "string"
            },
            {
              "internalType": "string",
              "name": "description",
              "type": "string"
            },
            {
              "internalType": "uint256",
              "name": "deadline",
              "type": "uint256"
            },
            {
              "internalType": "string[]",
              "name": "options",
              "type": "string[]"
            },
            {
              "internalType": "uint256[]",
              "name": "voteCounts",
              "type": "uint256[]"
            }
          ],
          "internalType": "struct VoteQuest.ProposalView",
          "name": "",
          "type": "tuple"
        }
      ],
      "stateMutability": "view",
      "type": "function"
    },
    {
      "inputs": [
        {
          "internalType": "uint256",
          "name": "",
          "type": "uint256"
        },
        {
          "internalType": "address",
          "name": "",
          "type": "address"
        }
      ],
      "name": "hasVoted",
      "outputs": [
        {
          "internalType": "bool",
          "name": "",
          "type": "bool"
        }
      ],
      "stateMutability": "view",
      "type": "function"
    },
    {
      "inputs": [],
      "name": "proposalCount",
      "outputs": [
        {
          "internalType": "uint256",
          "name": "",
          "type": "uint256"
        }
      ],
      "stateMutability": "view",
      "type": "function"
    },
    {
      "inputs": [
        {
          "internalType": "uint256",
          "name": "",
          "type": "uint256"
        }
      ],
      "name": "proposals",
      "outputs": [
        {
          "internalType": "uint256",
          "name": "id",
          "type": "uint256"
        },
        {
          "internalType": "string",
          "name": "title",
          "type": "string"
        },
        {
          "internalType": "string",
          "name": "description",
          "type": "string"
        },
        {
          "internalType": "uint256",
          "name": "deadline",
          "type": "uint256"
        },
        {
          "internalType": "bool",
          "name": "exists",
          "type": "bool"
        }
      ],
      "stateMutability": "view",
      "type": "function"
    },
    {
      "inputs": [
        {
          "internalType": "uint256",
          "name": "_proposalId",
          "type": "uint256"
        },
        {
          "internalType": "uint256",
          "name": "_optionIndex",
          "type": "uint256"
        }
      ],
      "name": "vote",
      "outputs": [],
      "stateMutability": "nonpayable",
      "type": "function"
    }
  ],
  "bytecode": "0x608060405234801561001057600080fd5b506119a5806100206000396000f3fe608060405234801561001057600080fd5b50600436106100625760003560e01c8063013cf08b14610067578063438596321461009b578063523413aa146100cb578063b384abef146100e7578063c7f758a814610103578063da35c66414610133575b600080fd5b610081600480360381019061007c9190610b6d565b610151565b604051610092959493929190610c54565b60405180910390f35b6100b560048036038101906100b09190610d13565b6102a4565b6040516100c29190610d53565b60405180910390f35b6100e560048036038101906100e09190610f89565b6102d3565b005b61010160048036038101906100fc9190611044565b610413565b005b61011d60048036038101906101189190610b6d565b6106bb565b60405161012a91906112ec565b60405180910390f35b61013b610a0d565b604051610148919061130e565b60405180910390f35b600060205280600052604060002060009150905080600001549080600101805461017a90611358565b80601f01602080910402602001604051908101604052809291908181526020018280546101a690611358565b80156101f35780601f106101c8576101008083540402835291602001916101f3565b820191906000526020600020905b8154815290600101906020018083116101d657829003601f168201915b50505050509080600201805461020890611358565b80601f016020809104026020016040519081016040528092919081815260200182805461023490611358565b80156102815780601f1061025657610100808354040283529160200191610281565b820191906000526020600020905b81548152906001019060200180831161026457829003601f168201915b5050505050908060030154908060060160009054906101000a900460ff16905085565b60016020528160005260406000206020528060005260406000206000915091509054906101000a900460ff1681565b6001815111610317576040517f08c379a000000000000000000000000000000000000000000000000000000000815260040161030e906113d5565b60405180910390fd5b6002600081548092919061032a90611424565b91905055506000806000600254815260200190815260200160002090506002548160000181905550848160010190816103639190611618565b50838160020190816103759190611618565b50603c8361038391906116ea565b4261038e919061172c565b8160030181905550818160040190805190602001906103ae929190610a13565b5060018160060160006101000a81548160ff0219169083151502179055506002547ff5dc0da9afa6d080780a49fd8c680f03d2ddf3c067cd6d0c85360c096644d2d3868360030154604051610404929190611760565b60405180910390a25050505050565b60008083815260200190815260200160002060060160009054906101000a900460ff16610475576040517f08c379a000000000000000000000000000000000000000000000000000000000815260040161046c906117dc565b60405180910390fd5b6000808381526020019081526020016000206003015442106104cc576040517f08c379a00000000000000000000000000000000000000000000000000000000081526004016104c390611848565b60405180910390fd5b6001600083815260200190815260200160002060003373ffffffffffffffffffffffffffffffffffffffff1673ffffffffffffffffffffffffffffffffffffffff16815260200190815260200160002060009054906101000a900460ff161561056a576040517f08c379a0000000000000000000000000000000000000000000000000000000008152600401610561906118b4565b60405180910390fd5b6000808381526020019081526020016000206004018054905081106105c4576040517f08c379a00000000000000000000000000000000000000000000000000000000081526004016105bb90611920565b60405180910390fd5b600080838152602001908152602001600020600501600082815260200190815260200160002060008154809291906105fb90611424565b9190505550600180600084815260200190815260200160002060003373ffffffffffffffffffffffffffffffffffffffff1673ffffffffffffffffffffffffffffffffffffffff16815260200190815260200160002060006101000a81548160ff0219169083151502179055503373ffffffffffffffffffffffffffffffffffffffff16827f2acce567deca3aabf56327adbb4524bd5318936eaefa69e3a5208ffda0cfec09836040516106af919061130e565b60405180910390a35050565b6106c3610a6c565b60008083815260200190815260200160002060060160009054906101000a900460ff16610725576040517f08c379a000000000000000000000000000000000000000000000000000000000815260040161071c906117dc565b60405180910390fd5b600080600084815260200190815260200160002090506000816004018054905067ffffffffffffffff81111561075e5761075d610d78565b5b60405190808252806020026020018201604052801561078c5781602001602082028036833780820191505090505b50905060005b82600401805490508110156107e357826005016000828152602001908152602001600020548282815181106107ca576107c9611940565b5b6020026020010181815250508080600101915050610792565b506040518060c001604052808360000154815260200183600101805461080890611358565b80601f016020809104026020016040519081016040528092919081815260200182805461083490611358565b80156108815780601f1061085657610100808354040283529160200191610881565b820191906000526020600020905b81548152906001019060200180831161086457829003601f168201915b5050505050815260200183600201805461089a90611358565b80601f01602080910402602001604051908101604052809291908181526020018280546108c690611358565b80156109135780601f106108e857610100808354040283529160200191610913565b820191906000526020600020905b8154815290600101906020018083116108f657829003601f168201915b505050505081526020018360030154815260200183600401805480602002602001604051908101604052809291908181526020016000905b828210156109f757838290600052602060002001805461096a90611358565b80601f016020809104026020016040519081016040528092919081815260200182805461099690611358565b80156109e35780601f106109b8576101008083540402835291602001916109e3565b820191906000526020600020905b8154815290600101906020018083116109c657829003601f168201915b50505050508152602001906001019061094b565b5050505081526020018281525092505050919050565b60025481565b828054828255906000526020600020908101928215610a5b579160200282015b82811115610a5a578251829081610a4a9190611618565b5091602001919060010190610a33565b5b509050610a689190610aa2565b5090565b6040518060c001604052806000815260200160608152602001606081526020016000815260200160608152602001606081525090565b5b80821115610ac25760008181610ab99190610ac6565b50600101610aa3565b5090565b508054610ad290611358565b6000825580601f10610ae45750610b03565b601f016020900490600052602060002090810190610b029190610b06565b5b50565b5b80821115610b1f576000816000905550600101610b07565b5090565b6000604051905090565b600080fd5b600080fd5b6000819050919050565b610b4a81610b37565b8114610b5557600080fd5b50565b600081359050610b6781610b41565b92915050565b600060208284031215610b8357610b82610b2d565b5b6000610b9184828501610b58565b91505092915050565b610ba381610b37565b82525050565b600081519050919050565b600082825260208201905092915050565b60005b83811015610be3578082015181840152602081019050610bc8565b60008484015250505050565b6000601f19601f8301169050919050565b6000610c0b82610ba9565b610c158185610bb4565b9350610c25818560208601610bc5565b610c2e81610bef565b840191505092915050565b60008115159050919050565b610c4e81610c39565b82525050565b600060a082019050610c696000830188610b9a565b8181036020830152610c7b8187610c00565b90508181036040830152610c8f8186610c00565b9050610c9e6060830185610b9a565b610cab6080830184610c45565b9695505050505050565b600073ffffffffffffffffffffffffffffffffffffffff82169050919050565b6000610ce082610cb5565b9050919050565b610cf081610cd5565b8114610cfb57600080fd5b50565b600081359050610d0d81610ce7565b92915050565b60008060408385031215610d2a57610d29610b2d565b5b6000610d3885828601610b58565b9250506020610d4985828601610cfe565b9150509250929050565b6000602082019050610d686000830184610c45565b92915050565b600080fd5b600080fd5b7f4e487b7100000000000000000000000000000000000000000000000000000000600052604160045260246000fd5b610db082610bef565b810181811067ffffffffffffffff82111715610dcf57610dce610d78565b5b80604052505050565b6000610de2610b23565b9050610dee8282610da7565b919050565b600067ffffffffffffffff821115610e0e57610e0d610d78565b5b610e1782610bef565b9050602081019050919050565b82818337600083830152505050565b6000610e46610e4184610df3565b610dd8565b905082815260208101848484011115610e6257610e61610d73565b5b610e6d848285610e24565b509392505050565b600082601f830112610e8a57610e89610d6e565b5b8135610e9a848260208601610e33565b91505092915050565b600067ffffffffffffffff821115610ebe57610ebd610d78565b5b602082029050602081019050919050565b600080fd5b6000610ee7610ee284610ea3565b610dd8565b90508083825260208201905060208402830185811115610f0a57610f09610ecf565b5b835b81811015610f5157803567ffffffffffffffff811115610f2f57610f2e610d6e565b5b808601610f3c8982610e75565b85526020850194505050602081019050610f0c565b5050509392505050565b600082601f830112610f7057610f6f610d6e565b5b8135610f80848260208601610ed4565b91505092915050565b60008060008060808587031215610fa357610fa2610b2d565b5b600085013567ffffffffffffffff811115610fc157610fc0610b32565b5b610fcd87828801610e75565b945050602085013567ffffffffffffffff811115610fee57610fed610b32565b5b610ffa87828801610e75565b935050604061100b87828801610b58565b925050606085013567ffffffffffffffff81111561102c5761102b610b32565b5b61103887828801610f5b565b91505092959194509250565b6000806040838503121561105b5761105a610b2d565b5b600061106985828601610b58565b925050602061107a85828601610b58565b9150509250929050565b61108d81610b37565b82525050565b600082825260208201905092915050565b60006110af82610ba9565b6110b98185611093565b93506110c9818560208601610bc5565b6110d281610bef565b840191505092915050565b600081519050919050565b600082825260208201905092915050565b6000819050602082019050919050565b600061111583836110a4565b905092915050565b6000602082019050919050565b6000611135826110dd565b61113f81856110e8565b935083602082028501611151856110f9565b8060005b8581101561118d578484038952815161116e8582611109565b94506111798361111d565b925060208a01995050600181019050611155565b50829750879550505050505092915050565b600081519050919050565b600082825260208201905092915050565b6000819050602082019050919050565b60006111d78383611084565b60208301905092915050565b6000602082019050919050565b60006111fb8261119f565b61120581856111aa565b9350611210836111bb565b8060005b8381101561124157815161122888826111cb565b9750611233836111e3565b925050600181019050611214565b5085935050505092915050565b600060c0830160008301516112666000860182611084565b506020830151848203602086015261127e82826110a4565b9150506040830151848203604086015261129882826110a4565b91505060608301516112ad6060860182611084565b50608083015184820360808601526112c5828261112a565b91505060a083015184820360a08601526112df82826111f0565b9150508091505092915050565b60006020820190508181036000830152611306818461124e565b905092915050565b60006020820190506113236000830184610b9a565b92915050565b7f4e487b7100000000000000000000000000000000000000000000000000000000600052602260045260246000fd5b6000600282049050600182168061137057607f821691505b60208210810361138357611382611329565b5b50919050565b7f4174206c656173742074776f206f7074696f6e73207265717569726564000000600082015250565b60006113bf601d83610bb4565b91506113ca82611389565b602082019050919050565b600060208201905081810360008301526113ee816113b2565b9050919050565b7f4e487b7100000000000000000000000000000000000000000000000000000000600052601160045260246000fd5b600061142f82610b37565b91507fffffffffffffffffffffffffffffffffffffffffffffffffffffffffffffffff8203611461576114606113f5565b5b600182019050919050565b60008190508160005260206000209050919050565b60006020601f8301049050919050565b600082821b905092915050565b6000600883026114ce7fffffffffffffffffffffffffffffffffffffffffffffffffffffffffffffffff82611491565b6114d88683611491565b95508019841693508086168417925050509392505050565b6000819050919050565b600061151561151061150b84610b37565b6114f0565b610b37565b9050919050565b6000819050919050565b61152f836114fa565b61154361153b8261151c565b84845461149e565b825550505050565b600090565b61155861154b565b611563818484611526565b505050565b5b818110156115875761157c600082611550565b600181019050611569565b5050565b601f8211156115cc5761159d8161146c565b6115a684611481565b810160208510156115b5578190505b6115c96115c185611481565b830182611568565b50505b505050565b600082821c905092915050565b60006115ef600019846008026115d1565b1980831691505092915050565b600061160883836115de565b9150826002028217905092915050565b61162182610ba9565b67ffffffffffffffff81111561163a57611639610d78565b5b6116448254611358565b61164f82828561158b565b600060209050601f8311600181146116825760008415611670578287015190505b61167a85826115fc565b8655506116e2565b601f1984166116908661146c565b60005b828110156116b857848901518255600182019150602085019450602081019050611693565b868310156116d557848901516116d1601f8916826115de565b8355505b6001600288020188555050505b505050505050565b60006116f582610b37565b915061170083610b37565b925082820261170e81610b37565b91508282048414831517611725576117246113f5565b5b5092915050565b600061173782610b37565b915061174283610b37565b925082820190508082111561175a576117596113f5565b5b92915050565b6000604082019050818103600083015261177a8185610c00565b90506117896020830184610b9a565b9392505050565b7f50726f706f73616c20646f6573206e6f74206578697374000000000000000000600082015250565b60006117c6601783610bb4565b91506117d182611790565b602082019050919050565b600060208201905081810360008301526117f5816117b9565b9050919050565b7f566f74696e672068617320656e64656400000000000000000000000000000000600082015250565b6000611832601083610bb4565b915061183d826117fc565b602082019050919050565b6000602082019050818103600083015261186181611825565b9050919050565b7f596f75206861766520616c726561647920766f74656400000000000000000000600082015250565b600061189e601683610bb4565b91506118a982611868565b602082019050919050565b600060208201905081810360008301526118cd81611891565b9050919050565b7f496e76616c6964206f7074696f6e000000000000000000000000000000000000600082015250565b600061190a600e83610bb4565b9150611915826118d4565b602082019050919050565b60006020820190508181036000830152611939816118fd565b9050919050565b7f4e487b7100000000000000000000000000000000000000000000000000000000600052603260045260246000fdfea2646970667358221220ea0b1016731bed5cf7ba93ad737a09ab85e1b64107c192026f46514dab294bd364736f6c63430008180033",
  "linkReferences": {},
  "deployedLinkReferences": {}
}